{
  "contractName": "Faucet",
  "abi": [
    {
      "inputs": [],
      "name": "numOfFunders",
      "outputs": [
        {
          "internalType": "uint256",
          "name": "",
          "type": "uint256"
        }
      ],
      "stateMutability": "view",
      "type": "function"
    },
    {
      "inputs": [],
      "name": "owner",
      "outputs": [
        {
          "internalType": "address",
          "name": "",
          "type": "address"
        }
      ],
      "stateMutability": "view",
      "type": "function"
    },
    {
      "inputs": [],
      "name": "test3",
      "outputs": [
        {
          "internalType": "uint256",
          "name": "",
          "type": "uint256"
        }
      ],
      "stateMutability": "pure",
      "type": "function"
    },
    {
      "inputs": [],
      "name": "testNum",
      "outputs": [
        {
          "internalType": "uint256",
          "name": "",
          "type": "uint256"
        }
      ],
      "stateMutability": "view",
      "type": "function"
    },
    {
      "stateMutability": "payable",
      "type": "receive"
    },
    {
      "inputs": [],
      "name": "emitLog",
      "outputs": [
        {
          "internalType": "bytes32",
          "name": "",
          "type": "bytes32"
        }
      ],
      "stateMutability": "pure",
      "type": "function"
    },
    {
      "inputs": [
        {
          "internalType": "address",
          "name": "newOwner",
          "type": "address"
        }
      ],
      "name": "transferOwnership",
      "outputs": [],
      "stateMutability": "nonpayable",
      "type": "function"
    },
    {
      "inputs": [],
      "name": "addFunds",
      "outputs": [],
      "stateMutability": "payable",
      "type": "function"
    },
    {
      "inputs": [],
      "name": "test1",
      "outputs": [],
      "stateMutability": "nonpayable",
      "type": "function"
    },
    {
      "inputs": [],
      "name": "test2",
      "outputs": [],
      "stateMutability": "nonpayable",
      "type": "function"
    },
    {
      "inputs": [
        {
          "internalType": "uint256",
          "name": "withdrawAmount",
          "type": "uint256"
        }
      ],
      "name": "withdraw",
      "outputs": [],
      "stateMutability": "nonpayable",
      "type": "function"
    },
    {
      "inputs": [],
      "name": "getAllFunders",
      "outputs": [
        {
          "internalType": "address[]",
          "name": "",
          "type": "address[]"
        }
      ],
      "stateMutability": "view",
      "type": "function"
    },
    {
      "inputs": [
        {
          "internalType": "uint8",
          "name": "index",
          "type": "uint8"
        }
      ],
      "name": "getFunderAtIndex",
      "outputs": [
        {
          "internalType": "address",
          "name": "",
          "type": "address"
        }
      ],
      "stateMutability": "view",
      "type": "function"
    }
  ],
  "bytecode": "0x608060405234801561001057600080fd5b50336000806101000a81548173ffffffffffffffffffffffffffffffffffffffff021916908373ffffffffffffffffffffffffffffffffffffffff1602179055506103e8600181905550610ca2806100696000396000f3fe6080604052600436106100ab5760003560e01c80638da5cb5b116100645780638da5cb5b146101a1578063a26759cb146101cc578063ae28f1ed146101d6578063af7f2c9b14610201578063f2fde38b1461022c578063f42c13bf14610255576100b2565b80630a8e8e01146100b75780630a93cf33146100e25780632e1a7d4d1461011f57806366e41cb7146101485780636b59084d1461015f5780636fbbb55d14610176576100b2565b366100b257005b600080fd5b3480156100c357600080fd5b506100cc610280565b6040516100d99190610a59565b60405180910390f35b3480156100ee57600080fd5b50610109600480360381019061010491906108a0565b610289565b60405161011691906109c1565b60405180910390f35b34801561012b57600080fd5b5061014660048036038101906101419190610877565b6102c9565b005b34801561015457600080fd5b5061015d610360565b005b34801561016b57600080fd5b506101746103f0565b005b34801561018257600080fd5b5061018b610480565b60405161019891906109dc565b60405180910390f35b3480156101ad57600080fd5b506101b66105c6565b6040516101c391906109c1565b60405180910390f35b6101d46105ea565b005b3480156101e257600080fd5b506101eb61070a565b6040516101f89190610a59565b60405180910390f35b34801561020d57600080fd5b50610216610710565b6040516102239190610a59565b60405180910390f35b34801561023857600080fd5b50610253600480360381019061024e919061084e565b610716565b005b34801561026157600080fd5b5061026a6107e7565b60405161027791906109fe565b60405180910390f35b60006064905090565b6000600460008360ff16815260200190815260200160002060009054906101000a900473ffffffffffffffffffffffffffffffffffffffff169050919050565b8067016345785d8a0000811115610315576040517f08c379a000000000000000000000000000000000000000000000000000000000815260040161030c90610a39565b60405180910390fd5b3373ffffffffffffffffffffffffffffffffffffffff166108fc839081150290604051600060405180830381858888f1935050505015801561035b573d6000803e3d6000fd5b505050565b60008054906101000a900473ffffffffffffffffffffffffffffffffffffffff1673ffffffffffffffffffffffffffffffffffffffff163373ffffffffffffffffffffffffffffffffffffffff16146103ee576040517f08c379a00000000000000000000000000000000000000000000000000000000081526004016103e590610a19565b60405180910390fd5b565b60008054906101000a900473ffffffffffffffffffffffffffffffffffffffff1673ffffffffffffffffffffffffffffffffffffffff163373ffffffffffffffffffffffffffffffffffffffff161461047e576040517f08c379a000000000000000000000000000000000000000000000000000000000815260040161047590610a19565b60405180910390fd5b565b6060600060025467ffffffffffffffff8111156104c6577f4e487b7100000000000000000000000000000000000000000000000000000000600052604160045260246000fd5b6040519080825280602002602001820160405280156104f45781602001602082028036833780820191505090505b50905060005b6002548110156105be576004600082815260200190815260200160002060009054906101000a900473ffffffffffffffffffffffffffffffffffffffff16828281518110610571577f4e487b7100000000000000000000000000000000000000000000000000000000600052603260045260246000fd5b602002602001019073ffffffffffffffffffffffffffffffffffffffff16908173ffffffffffffffffffffffffffffffffffffffff168152505080806105b690610b11565b9150506104fa565b508091505090565b60008054906101000a900473ffffffffffffffffffffffffffffffffffffffff1681565b6000339050600360008273ffffffffffffffffffffffffffffffffffffffff1673ffffffffffffffffffffffffffffffffffffffff16815260200190815260200160002060009054906101000a900460ff166107075760006002600081548092919061065590610b11565b9190505590506001600360008473ffffffffffffffffffffffffffffffffffffffff1673ffffffffffffffffffffffffffffffffffffffff16815260200190815260200160002060006101000a81548160ff021916908315150217905550816004600083815260200190815260200160002060006101000a81548173ffffffffffffffffffffffffffffffffffffffff021916908373ffffffffffffffffffffffffffffffffffffffff160217905550505b50565b60015481565b60025481565b60008054906101000a900473ffffffffffffffffffffffffffffffffffffffff1673ffffffffffffffffffffffffffffffffffffffff163373ffffffffffffffffffffffffffffffffffffffff16146107a4576040517f08c379a000000000000000000000000000000000000000000000000000000000815260040161079b90610a19565b60405180910390fd5b806000806101000a81548173ffffffffffffffffffffffffffffffffffffffff021916908373ffffffffffffffffffffffffffffffffffffffff16021790555050565b60007f48656c6c6f20576f726c64000000000000000000000000000000000000000000905090565b60008135905061081e81610c27565b92915050565b60008135905061083381610c3e565b92915050565b60008135905061084881610c55565b92915050565b60006020828403121561086057600080fd5b600061086e8482850161080f565b91505092915050565b60006020828403121561088957600080fd5b600061089784828501610824565b91505092915050565b6000602082840312156108b257600080fd5b60006108c084828501610839565b91505092915050565b60006108d583836108e1565b60208301905092915050565b6108ea81610abe565b82525050565b6108f981610abe565b82525050565b600061090a82610a84565b6109148185610a9c565b935061091f83610a74565b8060005b8381101561095057815161093788826108c9565b975061094283610a8f565b925050600181019050610923565b5085935050505092915050565b61096681610ad0565b82525050565b6000610979602183610aad565b915061098482610b89565b604082019050919050565b600061099c602383610aad565b91506109a782610bd8565b604082019050919050565b6109bb81610afa565b82525050565b60006020820190506109d660008301846108f0565b92915050565b600060208201905081810360008301526109f681846108ff565b905092915050565b6000602082019050610a13600083018461095d565b92915050565b60006020820190508181036000830152610a328161096c565b9050919050565b60006020820190508181036000830152610a528161098f565b9050919050565b6000602082019050610a6e60008301846109b2565b92915050565b6000819050602082019050919050565b600081519050919050565b6000602082019050919050565b600082825260208201905092915050565b600082825260208201905092915050565b6000610ac982610ada565b9050919050565b6000819050919050565b600073ffffffffffffffffffffffffffffffffffffffff82169050919050565b6000819050919050565b600060ff82169050919050565b6000610b1c82610afa565b91507fffffffffffffffffffffffffffffffffffffffffffffffffffffffffffffffff821415610b4f57610b4e610b5a565b5b600182019050919050565b7f4e487b7100000000000000000000000000000000000000000000000000000000600052601160045260246000fd5b7f4f6e6c79206f776e65722063616e2063616c6c20746869732066756e6374696f60008201527f6e00000000000000000000000000000000000000000000000000000000000000602082015250565b7f43616e6e6f74207769746864726177206d6f7265207468616e20302e3120657460008201527f6865720000000000000000000000000000000000000000000000000000000000602082015250565b610c3081610abe565b8114610c3b57600080fd5b50565b610c4781610afa565b8114610c5257600080fd5b50565b610c5e81610b04565b8114610c6957600080fd5b5056fea264697066735822122032daaceb24f6f6f263f8acc998f37f462fd80bf97e9cf3fa9be4c0d9b244f44a64736f6c63430008040033",
  "immutableReferences": {},
  "source": "// SPDX-License-Identifier: MIT\r\npragma solidity >=0.4.22 <0.9.0;\r\n\r\nimport \"./Owned.sol\";\r\nimport \"./Logger.sol\";\r\nimport \"./IFaucet.sol\";\r\n\r\n// Faucet is inheriting Owned\r\ncontract Faucet is Owned, Logger, IFaucet{\r\n    // storage variables\r\n    // uint public funds = 1000; // only positive values\r\n   \r\n   // special functionn, its called when u make a transaction that doesn't specify function name to call\r\n   //External functions are part of the contract interface which means they can be called via contracts and other transactions\r\n   \r\n   uint public numOfFunders;\r\n   mapping(address => bool)  private funders;\r\n   mapping(uint => address)  private lutFunders; // look up table funders\r\n\r\n   modifier limitWithdraw (uint withdrawAmount){\r\n    require(\r\n        withdrawAmount<= 100000000000000000, \r\n        \"Cannot withdraw more than 0.1 ether\"\r\n    );\r\n    _;\r\n   }\r\n\r\n   // private -> can be accessible only within the smart contract\r\n   // internal -> can be accessible within smart contract and also derived smart contract.\r\n\r\n\r\n   \r\n   receive() external payable{}\r\n    function emitLog() public override pure returns(bytes32){\r\n        return \"Hello World\";\r\n    }\r\n\r\n    function transferOwnership(address newOwner) external onlyOwner{\r\n        owner = newOwner;\r\n    }\r\n\r\n   function addFunds() override external payable {\r\n    address funder = msg.sender;\r\n\r\n    // if address already exists, we're not going to add it.\r\n    if(!funders[funder]){\r\n        uint index = numOfFunders++;\r\n        funders[funder] = true;\r\n        lutFunders[index] = funder;\r\n    }\r\n   }\r\n\r\n   function test1() external onlyOwner {\r\n    // some managing stuff that only admin should have access to\r\n   }\r\n\r\n   function test2() external onlyOwner {\r\n    // some managing stuff that only admin should have access to\r\n   }\r\n\r\n   function withdraw(uint withdrawAmount) override external limitWithdraw(withdrawAmount) {\r\n    payable(msg.sender).transfer(withdrawAmount);\r\n   }\r\n\r\n    function getAllFunders() external view returns(address[] memory){\r\n        address[] memory _funders = new address[](numOfFunders);\r\n\r\n        for(uint i=0;i<numOfFunders;i++){\r\n            _funders[i] = lutFunders[i];\r\n        } \r\n\r\n        return _funders;\r\n    }\r\n\r\n    function getFunderAtIndex(uint8 index) external view returns(address){\r\n        return lutFunders[index];\r\n    }\r\n   \r\n    // pure, view - read-only call, no gas fee\r\n    // view - it indicates that the function will not alter the storage state in any way\r\n    // pure - even more strict, indicating that it wont even read the storage state.\r\n    \r\n    // Transactions (can generate state changes) and require gas fee, read only call, no gas fee\r\n\r\n    // Block info - \r\n    // Nonce - a hash that when combined with the minHash proofs that\r\n    // the block has gone through the proof of work. 8 bytes => 64bits \r\n}\r\n\r\n\r\n// truffle migrate --reset\r\n// truffle console\r\n// const instance = await Faucet.deployed()\r\n// instance.addFunds({from: accounts[0], value: \"2000000000000000000\"})",
  "sourcePath": "E:\\Blockchain Web3.0\\faucet\\contracts\\FaucetContract.sol",
  "compiler": {
    "name": "solc",
    "version": "0.8.4+commit.c7e474f2.Emscripten.clang"
  },
  "schemaVersion": "3.4.10",
  "updatedAt": "2022-12-08T14:17:45.627Z",
  "devdoc": {
    "kind": "dev",
    "methods": {},
    "version": 1
  },
  "userdoc": {
    "kind": "user",
    "methods": {},
    "version": 1
  }
}